:020000042000DA
:10000000F08F0120950100209D0100209F0100201C
:1000100000000000000000000000000000000000E0
:10002000000000000000000000000000A10100200E
:100030000000000000000000A3010020A501002036
:10004000D12A0020F723002081040020FD07002092
:1000500093020020CD050020A7010020A701002069
:10006000E1030020A70100200000000000000000C4
:100070000000000000000000000000000000000080
:100080000000000000000000000000000000000070
:100090000000000000000000000000000000000060
:1000A0000000000000000000000000000000000050
:1000B00000F002F800F040F80CA030C8083824180E
:1000C0002D18A246671EAB4654465D46AC4201D190
:1000D00000F032F87E460F3E0FCCB6460126334282
:1000E00000D0FB1AA246AB4633431847C03300008A
:1000F00000340000103A02D378C878C1FAD8520709
:1001000001D330C830C101D504680C6070470000CD
:100110000023002400250026103A01D378C1FBD823
:10012000520700D330C100D50B6070471FB5C046E1
:10013000C0461FBD10B510BD03F078F91146FFF79A
:10014000F5FF02F09DF903F090F903B4FFF7F2FF19
:1001500003BC03F095F9000070B505460C46164641
:1001600002E00FCC0FC5103E102EFAD2082E02D39B
:1001700003CC03C5083E042E07D301CC01C5361FAE
:1001800003E021782970641C6D1C761EF9D270BDC5
:10019000704700000748804707480047FEE7FEE732
:1001A000FEE7FEE7FEE7FEE704480549054A064B81
:1001B0007047000091010020B10000200070012074
:1001C000F08F0120008001200080012000B5030095
:1001D00003F05DF90936060C12181E242A30360089
:1001E000A921454A51621221916229E07021424AB7
:1001F00051623621916223E054213F4A5162292104
:1002000091621DE02A213C4A51621521916217E05A
:100210002521394A51623421916211E01C21364A6C
:1002200051620E2191620BE01521334A51620A217D
:10023000916205E00E21304A51620621916200BFB1
:1002400000BF032109022C4A11632421516360215C
:10025000D162102191631146096B01221143264A94
:10026000116300BD2449086000BF234989698022C9
:1002700011400029F9D0704710B503460C4603E041
:100280001878FFF7EFFF5B1C2046641E0028F7D1AB
:1002900010BD19490968C8B21849194A126888542A
:1002A00017490968491C164A1160114609687D22E0
:1002B0001201914202D30021114A11600F490978BD
:1002C000E02910D10D4949780E290CD10B498978C4
:1002D00009020A4AD2781143094A1268914202D1AE
:1002E0000121084A11700449403149681022114324
:1002F000014A403251607047001000401C600020ED
:10030000046000200060002070B502460B461446D1
:1003100000211E4612E0207800024140082509E035
:100320000120C0030840002801D00B484140480488
:10033000010C6D1E002DF3D1761E641C002EEAD137
:10034000081270BD01B502E00098401E00900098B0
:100350000028F9D108BD000080830000012807D1E2
:10036000204A126801238B401A431E4B1A6006E094
:100370001C4A126801238B409A431A4B1A6070473B
:10038000821C01219140184A891809680122824083
:100390001143821C01239340134A9A18116070473D
:1003A000811C01228A4010495118096801228240AB
:1003B0009143821C012393400B4A9A1811607047A5
:1003C0000146881C0122824007481018006801225B
:1003D0008A401040002801D0012070470020FCE72F
:1003E0007047000000640040006000404E48C06A52
:1003F000400840004C49C86218204B494039886089
:100400000846006808218843474940390860084683
:100410000068042188434449403908600846006860
:1004200002210843404940390860084600684008F6
:100430004000086008460068402188433A49403936
:1004400008600220086000208863C86324200863D5
:100450003548C06A012108433349C86270473249B0
:1004600040390861704700B502460B4603E010783A
:10047000FFF7F5FF521C18465B1E0028F7D100BDA0
:1004800010B529494039496B20231940002914D05F
:1004900000200DE02549095C234B403B196100BF5A
:1004A00021494039496B102319400029F8D0401CDC
:1004B0000E28EFD31C490969CAB21B494039496B60
:1004C0000423194000292DD000BF174B403B5B6B24
:1004D00004242340002BF8D0134B403B1B69D9B2B6
:1004E000114B9B68DAB2124B124C24681955114B10
:1004F0001B685B1C0F4C23600D4B1B78E02B10D14D
:100500000B4B5B780E2B0CD1094B9B781B02084CD4
:10051000E4782343074C2468A34202D10123064C0C
:10052000237000BF10BD000040200040EC67002099
:100530001C600020046000200060002042488068A9
:1005400040084000404988604048086000208861B9
:10055000C8611420C86208468068012108433A49EE
:100560008860704738488068400840003649886095
:10057000FF204830086000208861C861C8620846D2
:100580008068012108433049886070472E49403116
:10059000086200BF2C49896A022211400229F9D160
:1005A000704709E0284A126A102A05D2491E0278CB
:1005B000254B40331A62401C0029F3D100BF224A68
:1005C000926A04231A40042AF9D170471E4A126B1A
:1005D00010231A40102A2CD11B4A4032126AD0B282
:1005E0001B4A1C4B1B68D0541278FF2A03D10022EF
:1005F000184B1A6004E0174A1268521C154B1A6017
:10060000134A1278E02A10D1114A52780E2A0CD1DE
:100610000F4A927812020E4BDB781A430D4B1B687F
:100620009A4202D101220C4B1A70074A403292685A
:10063000D1B2054A126BD207D20F002A03D0024A68
:1006400040329268D1B2704700300040470200004B
:100650001C600020046000200060002010B51148DC
:10066000406A400840000F4948620F4808630F483D
:10067000C8620846806A012108430A4988626420EA
:10068000FFF760FE0320074988627D20C000FFF766
:1006900059FE00BF0348406B0128FBD103200149EC
:1006A000486210BD4000004004FC11000C311814D9
:1006B0005948C06A400840005749C86265205649F9
:1006C0004039086010204860232088611520486167
:1006D00004200863012088630420C8634E48C06A70
:1006E000012108434C49C862704730B50246C4171F
:1006F000240EA4182404240E474D403D2C61C41739
:10070000240EA41824122402041BE4B22C610A460D
:10071000CC17240EA4182404240E2C61CC17240E0C
:10072000A418241224020C1BE4B26D152C433A4D7C
:10073000403D2C61002300E05B1C384A9342FBDB08
:1007400030BD30B50A460146C417240E641824048F
:10075000240E314D403D2C61C417240E6418241220
:100760002402041BE4B22C61691511432C4621615B
:10077000002300E05B1C29498B42FBDB30BD70B5D8
:10078000044600252012244940390861E0B208617E
:10079000084600690521090208431F4940390861DC
:1007A000084600690321090208431B4940390861D2
:1007B0007D20C000FFF7C6FD1948007800021949E6
:1007C000097808430546284670BD70B504460025E3
:1007D0002012114940390861E0B2086108460069F9
:1007E0000721090208430C49403908617D20C000F7
:1007F000FFF7A8FD0A480578284670BD064840382E
:10080000406B04210840002804D0034840380069A8
:1008100003490870704700004070004088130000D2
:10082000086000200960002001203449086200208F
:1008300033498860012088600020314940310860D8
:1008400048600120086048600861002008612D4868
:1008500048610220086100200861012048610220EF
:10086000086100200861274821384861022008619A
:1008700000200861142048610220086100200861FE
:1008800020481138486102200861002008611420C6
:10089000486102200861002008611A48401E486132
:1008A00002200861002008611420486102200861CC
:1008B0000020086108604860012008604860104915
:1008C0004860002008614861FF200D49C03148623E
:1008D00048630D4948604861486248630020084900
:1008E00088600120886000BF05484030C0688007EC
:1008F000800F0328F8D17047704700004000004087
:1009000000800040550001000081004010B501202A
:10091000FE498861FE48006803210843FC490860DD
:10092000FC48406801210843FA494860084640688D
:10093000400840004860F848FFF704FDF54840686B
:1009400001210843F3494860F448FFF7FBFC01210B
:10095000FF200430FFF7F5FEEF48FFF7F3FC00211E
:10096000FF200430FFF7EDFEEC48FFF7EBFC002121
:10097000FF200130FFF7E5FE0021E948FFF7E1FE27
:10098000022103200002FFF7DCFE0021E4480938C1
:10099000FFF7D7FE4C21E2480838FFF7D2FE0021CE
:1009A000DF48C01FFFF7CDFE0321C1208000FFF705
:1009B000C8FE9321DB48FFF7C4FE0121D848401F41
:1009C000FFF7BFFE0121D648001FFFF7BAFE022144
:1009D000D3480830FFF7B5FE0021D148401CFFF78F
:1009E000B0FE0021C3208000FFF7ABFE1E21CC48E3
:1009F000C01CFFF7A6FE0221C9480830FFF7A1FE80
:100A00000721C748401DFFF79CFE0021C448001D78
:100A1000FFF797FE8021C3481230FFF792FE242192
:100A2000C0481330FFF78DFE1121BE48E630FFF7B6
:100A300088FE00216120C000FFF783FE0121B84835
:100A4000401EFFF77EFE0021B548C01DFFF779FE6E
:100A50000021B4481938FFF774FE0F21B1480B3854
:100A6000FFF76FFE0821AF480A38FFF76AFE102132
:100A7000AC480938FFF765FE0321AA48401CFFF780
:100A800060FE0121A748801CFFF75BFE0021A548FE
:100A9000C01CFFF756FE1021A248001DFFF751FEB3
:100AA0000021A0481030FFF74CFE0A219D4811306C
:100AB000FFF747FEFF219C48FFF743FE07219A48B6
:100AC0003938FFF73EFE802197483838FFF739FE66
:100AD000042195483738FFF734FE382192483638DC
:100AE000FFF72FFE092190483538FFF72AFEC42171
:100AF0008D483438FFF725FE04218B483338FFF743
:100B000020FED02188483238FFF71BFE0021072045
:100B1000C002FFF716FEAC2183484038FFF711FEF4
:100B2000002181483F38FFF70CFE40217E483E38C7
:100B3000FFF707FE09217C483D38FFF702FE9321AD
:100B400079483C38FFF7FDFD072177483B38FFF730
:100B5000F8FD672174483A38FFF7F3FD0021724829
:100B60003138FFF7EEFD04216F483038FFF7E9FD1B
:100B700000216D482F38FFF7E4FD02216A482E3826
:100B8000FFF7DFFD012168482D38FFF7DAFD01216D
:100B900065482C38FFF7D5FD012163481638FFF76B
:100BA000D0FD00216048401CFFF7CBFD00215E48CE
:100BB000801CFFF7C6FD00215B48C01CFFF7C1FD8C
:100BC00000215948001DFFF7BCFD002155480F3892
:100BD000FFF7B7FD002103200003FFF7B2FD00215E
:100BE00050481238FFF7ADFD00214E481838FFF786
:100BF000A8FD61214B481E38FFF7A3FD402149485D
:100C00001038FFF79EFD002146481338FFF799FD85
:100C1000F02144481B38FFF794FD302141481F3034
:100C2000FFF78FFD20213F480E38FFF78AFD6C212A
:100C30003C481C38FFF785FD42213A481A38FFF737
:100C400080FD002131200002FFF77BFD3221354875
:100C5000E130FFF776FD00213248E230FFF771FD09
:100C600000213048E330FFF76CFD01212D48E430CE
:100C7000FFF767FD11212B48E530FFF762FD0121E9
:100C80002848E730FFF75DFD002119204002FFF7FB
:100C900058FD08212548FFF754FD10212348401C2A
:100CA000FFF74FFD18212148801CFFF74AFD002166
:100CB0001E48C01DFFF745FD00211C480830FFF706
:100CC00040FD002119480930FFF73BFD112117486D
:100CD0000A30FFF736FD022114480B30FFF731FDD3
:100CE000802111482138FFF72CFD40210E48203883
:100CF000FFF727FD01210C482D38FFF722FD0121C8
:100D000009482C38FFF71DFD012111E0400000408B
:100D10000064004000600040B80B0000409C0000F0
:100D20000A030000203000004138000001320000BA
:100D3000FE481738FFF705FD0121FC481638FFF77C
:100D400000FD4021FA48FFF7FCFC0021F84808307C
:100D5000FFF7F7FC4621F5482138FFF7F2FC0621A2
:100D6000F2482038FFF7EDFC2021F1480930FFF769
:100D7000E8FC0021EF48FFF7E4FC00214F200002CF
:100D8000FFF7DFFC0021EC48FFF7DBFC0021EA481D
:100D9000801CFFF7D6FC0121E748C01CFFF7D1FCFF
:100DA0004021E548001DFFF7CCFCF021E248801D02
:100DB000FFF7C7FC01218803FFF7C3FC6021DF4870
:100DC000FFF7BFFC0021DD48401CFFF7BAFC002103
:100DD000DA48801CFFF7B5FC0021D848C01CFFF79B
:100DE000B0FC0221D548001DFFF7ABFC0021D34821
:100DF000401DFFF7A6FC0221D048801DFFF7A1FC93
:100E00000221CE48C01DFFF79CFC0D21CB480830C5
:100E1000FFF797FC0221C9480930FFF792FC002137
:100E2000C6480A30FFF78DFC0021C4480B30FFF79D
:100E300088FC0021C1480C30FFF783FC0021BF482B
:100E40000D30FFF77EFC8021BC480E30FFF779FCA7
:100E5000F021BA480F30FFF774FCF021B74810308A
:100E6000FFF76FFC0821B5481130FFF76AFC02213B
:100E7000B2481230FFF765FC0221B0481330FFF78B
:100E800060FC0221AD481430FFF75BFC0021AB4849
:100E90001530FFF756FC0821A8481630FFF751FC23
:100EA0000021A6483F30FFF74CFC0321A348403007
:100EB000FFF747FC0021A1484130FFF742FC7A21AF
:100EC0009E484230FFF73DFC00219C484330FFF72D
:100ED00038FC7A2199484430FFF733FC00219748C9
:100EE0004530FFF72EFC7A2194484630FFF729FC65
:100EF000002192484730FFF724FC7A218F48483080
:100F0000FFF71FFC30218D484930FFF71AFC1821EC
:100F10008A484A30FFF715FC002188484B30FFF71C
:100F200010FC00217B20C001FFF70BFC302184481E
:100F3000FFF707FCAA218248401CFFF702FC0821AA
:100F40007F48801CFFF7FDFB80217D48C01CFFF718
:100F5000F8FB17217A48001DFFF7F3FB02217848C0
:100F6000401DFFF7EEFB0A217548801DFFF7E9FBE6
:100F700000217348C01DFFF7E4FB002170480830D2
:100F8000FFF7DFFB00216E480930FFF7DAFB002195
:100F90006B480A30FFF7D5FB712169480B30FFF72A
:100FA000D0FBEA2166480C30FFF7CBFB00216448F8
:100FB0000D30FFF7C6FB002161480E30FFF7C1FB83
:100FC00012215F480F30FFF7BCFB06215C48103050
:100FD000FFF7B7FB00213B200002FFF7B2FB002127
:100FE0005848FFF7AEFB00215648401CFFF7A9FB0D
:100FF00000215448801CFFF7A4FB00215148C01C6D
:10100000FFF79FFB00210846FFF79BFB53214E484B
:10101000FFF797FB06214D48FFF793FBA4214720DC
:101020000002FFF78EFB0A214948FFF78AFB0021E7
:101030004748C01CFFF785FB00214548001DFFF70E
:1010400080FB04214248401DFFF77BFB10214048F4
:10105000801DFFF776FBF0213D48C01DFFF771FBB7
:1010600000213B480830FFF76CFB0021384809306D
:10107000FFF767FB642136480A30FFF762FB8021E7
:1010800033480B30FFF75DFB002131480C30FFF790
:1010900058FB00212E480F30FFF753FB03212D484A
:1010A000FFF74FFB01212C48FFF74BFB78212A4823
:1010B000401CFFF746FB68212748801CFFF741FBD7
:1010C00000212548C01CFFF73CFBF0212248001DF1
:1010D000FFF737FBF8212048801DFFF732FB012185
:1010E0001548C01CFFF72DFB40211348001DFFF7DA
:1010F00028FBF0211048801DFFF723FB12210E482A
:101100000F30FFF71EFB50210802FFF71AFB0121E9
:101110001248FFF716FB28211048401CFFF711FB6F
:1011200020210E48801CFFF70CFB19E0413800001D
:101130000245000003430000014F00000140000091
:10114000813D0000023B000016480000085A0000E4
:101150000147000004350000013A00000150000082
:101160000C21FE48FFF7EDFA0021FC481B30FFF789
:10117000E8FA0021F9483D30FFF7E3FA1021F7487B
:101180004430FFF7DEFA0021F4482930FFF7D9FA9E
:101190000421F2482E30FFF7D4FA0021EF482F3017
:1011A000FFF7CFFA0421ED483030FFF7CAFA0021EB
:1011B000EA483130FFF7C5FA0421E8483230FFF73A
:1011C000C0FA0021E5483330FFF7BBFA0421E348B9
:1011D0003430FFF7B6FA0021E0483530FFF7B1FAB6
:1011E0000521DE484130FFF7ACFA1021DB484430DE
:1011F000FFF7A7FA50210802FFF7A3FAA421AF20B6
:10120000C001FFF79EFA0A21D548FFF79AFA01219B
:10121000D348401CFFF795FA0021D148801CFFF706
:1012200090FA0021CE48C01CFFF78BFA0021CC4871
:10123000001DFFF786FA0421C948401DFFF781FA17
:101240001021C748801DFFF77CFAF021C448C01D5B
:10125000FFF777FA0021C2480830FFF772FA002141
:10126000BF480930FFF76DFA6421BD480A30FFF727
:1012700068FA8021BA480B30FFF763FA0021B848BA
:101280000C30FFF75EFA0021B5480D30FFF759FA30
:101290000021B3480E30FFF754FA0021B0480F3058
:1012A000FFF74FFA0021AE481030FFF74AFA00214D
:1012B000AB481130FFF745FA0021A9481230FFF77B
:1012C00040FA0021A6481330FFF73BFA0021A4485A
:1012D0001430FFF736FA0021A1481530FFF731FA34
:1012E00000219F481630FFF72CFA00219C48173048
:1012F000FFF727FA00219A481830FFF722FA002159
:1013000097481930FFF71DFA002195481A30FFF76A
:1013100018FA002192481B30FFF713FA0021904879
:101320001C30FFF70EFA00218D481D30FFF709FA37
:1013300000218B481E30FFF704FA002188481F3037
:10134000FFF7FFF9002186482030FFF7FAF9002166
:1013500083482130FFF7F5F9002181482230FFF75B
:10136000F0F900217E482330FFF7EBF900217C489B
:101370002430FFF7E6F9002179482530FFF7E1F93D
:10138000002177482630FFF7DCF900212D204002AC
:10139000FFF7D7F900217348FFF7D3F9002171480F
:1013A000401CFFF7CEF900216E48801CFFF7C9F9F9
:1013B0000C216C48C01CFFF7C4F9E0216948001DEE
:1013C000FFF7BFF909216748401DFFF7BAF9B021BF
:1013D0006448801DFFF7B5F906216248C01DFFF77C
:1013E000B0F903216048FFF7ACF900213520000275
:1013F000FFF7A7F90A215C48C01EFFF7A2F90021F8
:101400005948801EFFF79DF900215748401EFFF7FD
:1014100098F903215448FFF794F983215248401C5E
:10142000FFF78FF900215048801CFFF78AF900214F
:101430004D48C01CFFF785F900214B48001DFFF700
:1014400080F900214848401DFFF77BF904214648F8
:10145000801DFFF776F900214348C01DFFF771F9A1
:10146000002141480830FFF76CF980213E480930DF
:10147000FFF767F904213C480A30FFF762F90021C1
:1014800039480B30FFF75DF9002137480C30FFF782
:1014900058F9022134480D30FFF753F90021324842
:1014A0000E30FFF74EF970211B204002FFF749F97B
:1014B000C8212D48FD30FFF744F950212A48FE305D
:1014C000FFF73FF90C212848FF30FFF73AF90C21CC
:1014D0002648FFF736F9882124480C30FFF731F908
:1014E000582122480D30FFF72CF948211F480E30B3
:1014F000FFF727F90A211D480F30FFF722F95B217A
:101500001A481030FFF71DF9962118481130FFF7DF
:1015100018F9792115481230FFF713F907211348FC
:101520001330FFF70EF92A2110481430FFF709F99C
:101530000C210E481530FFF704F900210B48163036
:10154000FFF7FFF8002109481730FFF7FAF80021EC
:1015500006481830FFF7F5F8002109E004500000B4
:1015600081570000015A00000435000004360000D5
:10157000FE481930FFF7E5F80021FC481A30FFF764
:10158000E0F80021F9481B30FFF7DBF88121F7482C
:101590001C30FFF7D6F8D021F4481D30FFF7D1F802
:1015A0000021F2481E30FFF7CCF80021EF481F3031
:1015B000FFF7C7F82021ED482030FFF7C2F80421DB
:1015C000EA482130FFF7BDF84421E8482C30FFF706
:1015D000B8F86021E5482D30FFF7B3F80021E34863
:1015E0002E30FFF7AEF81321E0482F30FFF7A9F8AF
:1015F0001321DE483030FFF7A4F81321DB483130E7
:10160000FFF79FF81321D9483230FFF79AF80021ED
:10161000D9208001FFF795F80021D4483D30FFF72D
:1016200090F80021D1483E30FFF78BF80021CF48D9
:101630003F30FFF786F80021CC484030FFF781F8B3
:101640001321CA484130FFF77CF88221C748423055
:10165000FFF777F81021C5484330FFF772F80021F3
:10166000C2484430FFF76DF83821C0484530FFF7D5
:1016700068F82721BD484630FFF763F88821BB484A
:101680004730FFF75EF80021B8484830FFF759F8B7
:101690000021B6484930FFF754F80021B3484A30DA
:1016A000FFF74FF80021B1484B30FFF74AF800210F
:1016B000AE484C30FFF745F80021AC484D30FFF7FD
:1016C00040F8FF21A9484E30FFF73BF83421A748E6
:1016D0004F30FFF736F80021A4485030FFF731F8BB
:1016E0002021A2485130FFF72CF8FF219F485230AB
:1016F000FFF727F8C4219D485330FFF722F8002157
:101700009A485430FFF71DF8002198485530FFF7EC
:1017100018F8FF2195485630FFF713F8FF2193483A
:101720005730FFF70EF8002190485830FFF709F8BE
:1017300000218E485930FFF704F8FF218B485A30BA
:10174000FEF7FFFF002189485B30FEF7FAFF042116
:1017500086486530FEF7F5FF002184486630FEF7C5
:10176000F0FFFF2181486730FEF7EBFF00217F4843
:101770006830FEF7E6FF00217C486930FEF7E1FFA4
:1017800010217A486A30FEF7DCFF802177486B3001
:10179000FEF7D7FF282137200002FEF7D2FF1021E5
:1017A0007248FD30FEF7CDFF3A217048FE30FEF75B
:1017B000C8FF19216D48FF30FEF7C3FF10216C48A8
:1017C000FEF7BFFF00216A48401CFEF7BAFF662102
:1017D0006748801CFEF7B5FF08216548C01CFEF76E
:1017E000B0FF34216248001DFEF7ABFF4021604886
:1017F000401DFEF7A6FF01215D48801DFEF7A1FFF9
:101800001B215B48C01DFEF79CFF0721584808308C
:10181000FEF797FF002156480930FEF792FF00219E
:1018200053480A30FEF78DFF0A2151480B30FEF76E
:1018300088FF30214E480C30FEF783FF1C214C48B6
:101840000D30FEF77EFF442149480E30FEF779FF48
:10185000002147480F30FEF774FF24214448103020
:10186000FEF76FFF002142481130FEF76AFF0021AA
:101870003F481230FEF765FF03213D481330FEF765
:1018800060FF14213A481430FEF75BFF31213848DD
:101890001530FEF756FF3E2135481630FEF751FF52
:1018A000802133481730FEF74CFF4521304818306F
:1018B000FEF747FF05212E481930FEF742FF312180
:1018C0002B481A30FEF73DFF7F2129481B30FEF7D9
:1018D00038FF0A2126481C30FEF733FF0A2124482E
:1018E0001D30FEF72EFF062121481E30FEF729FF8E
:1018F0000A211F481F30FEF724FF0C211C4820300E
:10190000FEF71FFF02211A482130FEF71AFF0C21B3
:1019100017482230FEF715FF0A2115482330FEF73D
:1019200010FF0A2112482430FEF70BFF0321104854
:101930002530FEF706FF06210D482630FEF701FF91
:10194000A6210B482730FEF7FCFEA62108482830C8
:10195000FEF7F7FEA62106482930FEF7F2FE0C211D
:1019600003482A30FEF7EDFE202103E00436000094
:1019700004370000FE482B30FEF7E3FE0221FC484E
:101980002C30FEF7DEFE0C21F9482D30FEF7D9FE93
:101990002821F7482E30FEF7D4FE0021F4482F30DE
:1019A000FEF7CFFE4021F2483030FEF7CAFE00219C
:1019B000EF483130FEF7C5FE3021ED483230FEF7FA
:1019C000C0FE0021EA483330FEF7BBFE0021E848A4
:1019D0003430FEF7B6FE0521E5483530FEF7B1FE9E
:1019E0000521E3483630FEF7ACFE0621E0483730EB
:1019F000FEF7A7FE0A21DE483830FEF7A2FE2021BE
:101A0000DB483930FEF79DFE0621D9483A30FEF713
:101A100098FEA021D6483B30FEF793FE0E21D44815
:101A20005330FEF78EFE0021D1485430FEF789FE78
:101A30004C21CF485530FEF784FE0C21CC4856305F
:101A4000FEF77FFE0E21CA485730FEF77AFE2021AE
:101A5000C7485830FEF775FE0421C5485930FEF7D7
:101A600070FE0021C2485A30FEF76BFE2821C048A4
:101A70005B30FEF766FE0021BD485C30FEF761FE7C
:101A80000021BB485D30FEF75CFE0021B8485E30A7
:101A9000FEF757FE0021B6485F30FEF752FE0021E8
:101AA000B3486030FEF74DFE0021B1486130FEF7CB
:101AB00048FE5F21AE486230FEF743FE0021AC488D
:101AC0006330FEF73EFE0021A9486430FEF739FE80
:101AD0002221A7486530FEF734FE2A21A44866304B
:101AE000FEF72FFE0021A2486730FEF72AFE0021F4
:101AF0009F486830FEF725FE00219D486930FEF7BB
:101B000020FE00219A486A30FEF71BFE0221984809
:101B10006B30FEF716FE082195486C30FEF711FE7B
:101B2000002193486D30FEF70CFE462190486E3040
:101B3000FEF707FE08218E486F30FEF702FE1F21D8
:101B40008B487030FEF7FDFD132189487130FEF798
:101B5000F8FD062186487230FEF7F3FD0021844827
:101B60007330FEF7EEFD172181487430FEF7E9FD72
:101B700002217F487530FEF7E4FD0C217C48763069
:101B8000FEF7DFFD00217A487730FEF7DAFD00210D
:101B900077487830FEF7D5FD002175487930FEF79B
:101BA000D0FD002172487A30FEF7CBFD002170484D
:101BB0007B30FEF7C6FD88216D489C30FEF7C1FDE5
:101BC0005C216B489D30FEF7BCFD7A2168489E3051
:101BD000FEF7B7FD002166489F30FEF7B2FD0021F9
:101BE0006348A030FEF7ADFD00216148A130FEF74B
:101BF000A8FD00215E48A230FEF7A3FD88215C48C5
:101C0000A330FEF79EFD70215948A430FEF799FDE0
:101C100098215748A530FEF794FD88215448A630F6
:101C2000FEF78FFD48215248A730FEF78AFD0021BC
:101C30004F48A830FEF785FD00214D48A930FEF73A
:101C400080FD00214A48AA30FEF77BFD002148486C
:101C5000AB30FEF776FD6221DF208001FEF771FDDB
:101C600062214348BD30FEF76CFD04214048BE3080
:101C7000FEF767FDF0213E48BF30FEF762FD002110
:101C80003B48C030FEF75DFD00213948C130FEF70A
:101C900058FD04213648C230FEF753FD0021344878
:101CA000C330FEF74EFD00213148C430FEF749FD38
:101CB00000212F48C530FEF744FD46212C48C63090
:101CC000FEF73FFD00212A48C730FEF73AFD00210C
:101CD0002748C830FEF735FD00212548C930FEF7FA
:101CE00030FD00212248CA30FEF72BFD002120489C
:101CF000CB30FEF726FD082121204002FEF721FD12
:101D000000211C48FEF71DFD00211A48401CFEF76B
:101D100018FD80211748801CFEF713FDFF2143208A
:101D20000002FEF70EFD00211348FEF70AFD0F2109
:101D30001148401CFEF705FD00210F48801CFEF7EE
:101D400000FD08210C48C01CFEF7FBFC40210A489E
:101D5000001DFEF7F6FC0E210748401DFEF7F1FCC2
:101D600030210548801DFEF7ECFC0021024805E00B
:101D7000043700000142000001430000C01DFEF7CF
:101D8000E0FC0021FE48FEF7DCFC0021FC48401C82
:101D9000FEF7D7FC0021FA48801CFEF7D2FC002198
:101DA000F748C01CFEF7CDFC0021F548001DFEF7EA
:101DB000C8FC0021F248401DFEF7C3FC0021F0489A
:101DC000801DFEF7BEFC0221ED48C01DFEF7B9FCE8
:101DD0000421EB480830FEF7B4FC0021E848093044
:101DE000FEF7AFFC0021E6480A30FEF7AAFC00210E
:101DF000E3480B30FEF7A5FC0021E1480C30FEF76C
:101E0000A0FC0021DE480D30FEF79BFC0021DC48E1
:101E10001930FEF796FC0021D9481A30FEF791FCE4
:101E20000021D7481B30FEF78CFC0021D4481C3021
:101E3000FEF787FC0021D2481D30FEF782FC00210E
:101E4000CF481E30FEF77DFC0021CD481F30FEF745
:101E500078FC0021CA482030FEF773FC5C21092081
:101E6000C002FEF76EFC0021C648FEF76AFC0021A6
:101E7000C448401CFEF765FC0021C248801CFEF7E8
:101E800060FC0421BF48C01CFEF75BFC0021BD487C
:101E9000001DFEF756FC0021BA48401DFEF751FC1C
:101EA0000321B848801DFEF74CFC1A21B548C01D1F
:101EB000FEF747FC0021B3480830FEF742FC002142
:101EC000B0480930FEF73DFC0021AE480A30FEF76D
:101ED00038FC0021AB480B30FEF733FC0021A94849
:101EE0000C30FEF72EFC0021A6480D30FEF729FC31
:101EF0000021A4480E30FEF724FCFF21A1480F303A
:101F0000FEF71FFCFF219F481030FEF71AFC00214E
:101F10009C481130FEF715FC00219A481230FEF75C
:101F200010FC2A2197481330FEF70BFC002195483E
:101F30001430FEF706FC532192481530FEF701FCE1
:101F4000002190481630FEF7FCFB00218D48173029
:101F5000FEF7F7FB70218B481830FEF7F2FB0021EB
:101F600088481930FEF7EDFB3C2186481A30FEF711
:101F7000E8FB012183481B30FEF7E3FB2C2181485D
:101F80001C30FEF7DEFB5F217E481D30FEF7D9FBDB
:101F900040217C481E30FEF7D4FB002179481F30D9
:101FA000FEF7CFFB3C2177482030FEF7CAFB00212B
:101FB00074482130FEF7C5FB3C2172482230FEF701
:101FC000C0FB00216F482330FEF7BBFB32216D4878
:101FD0002430FEF7B6FB32216A482530FEF7B1FB0C
:101FE000552168482630FEF7ACFB002165482730B4
:101FF000FEF7A7FB642163482830FEF7A2FB062109
:1020000060482930FEF79DFB04215E482A30FEF728
:1020100098FB00215B482B30FEF793FB00215948C9
:102020002C30FEF78EFB342156482D30FEF789FB0D
:10203000002154482E30FEF784FB002151482F30F8
:10204000FEF77FFB64214F483030FEF77AFB00211A
:102050004C483130FEF775FB08214A483230FEF714
:1020600070FB002147483330FEF76BFB00214548E9
:102070003430FEF766FB002142483530FEF761FB45
:10208000132140483630FEF75CFB00213D483730D5
:10209000FEF757FB00213B483830FEF752FB00218A
:1020A00038483930FEF74DFB002136483A30FEF70C
:1020B00048FB022133483B30FEF743FB0021314807
:1020C0003C30FEF73EFB00212E483D30FEF739FB49
:1020D00000212C483E30FEF734FB002129483F30D8
:1020E000FEF72FFB002127484030FEF72AFB002196
:1020F00024484130FEF725FB002122484230FEF7FC
:1021000020FB00211F484330FEF71BFB00211D4828
:102110004430FEF716FB00211A484530FEF711FB4C
:10212000002118484630FEF70CFB002115484730C7
:10213000FEF707FB002113484830FEF702FB3F2162
:1021400010484930FEF7FDFA07210E484A30FEF7E5
:10215000F8FA03210B484B30FEF7F3FAB621094891
:102160004C30FEF7EEFA102106484D30FEF7E9FA42
:10217000552104484E30FEF7E4FA1021014803E0EF
:1021800009430000014800004F30FEF7DAFA32211F
:10219000B048FEF7D6FA0021AE48401CFEF7D1FA4F
:1021A0007621AC48801CFEF7CCFA002149200002C1
:1021B000FEF7C7FA0021A748B030FEF7C2FA0021A7
:1021C000A448B130FEF7BDFA0021A248B230FEF7B4
:1021D000B8FA00214F200002FEF7B3FA00219E4812
:1021E000FEF7AFFA00219C48401CFEF7AAFA002136
:1021F0009948801CFEF7A5FA01219748C01CFEF7FC
:10220000A0FA40219448001DFEF79BFA0021924855
:10221000401DFEF796FAF0218F48801DFEF791FAD7
:1022200011218D48C01DFEF78CFA11218A48083013
:10223000FEF787FA112188480930FEF782FA11214A
:1022400085480A30FEF77DFA112183480B30FEF7EE
:1022500078FA112180480C30FEF773FA11217E487C
:102260000D30FEF76EFA11217B480E30FEF769FA49
:10227000122179480F30FEF764FA0121592000023B
:10228000FEF75FFA00217548FEF75BFA58214520FA
:102290000002FEF756FA04217148FEF752FA402177
:1022A0006F48401CFEF74DFA10216D48801CFEF768
:1022B00048FA32216B48FEF744FA00216948401C75
:1022C000FEF73FFAF0216748801CFEF73AFAF0214A
:1022D0006448C01CFEF735FAF0216248001DFEF785
:1022E00030FAF0215F48401DFEF72BFAF0215D48DF
:1022F000801DFEF726FA00215A48C01DFEF721FA7C
:10230000002158481C30FEF71CFA182155481D3092
:10231000FEF717FA012153481E30FEF712FA00218A
:1023200050481F30FEF70DFA60214E482030FEF76E
:1023300008FAF0214B482130FEF703FAF021494812
:102340002230FEF7FEF9F02146482330FEF7F9F976
:10235000FF2144482430FEF7F4F9F02141482530AC
:10236000FEF7EFF9FF213F482630FEF7EAF9F021AA
:10237000C1208001FEF7E5F900213A482930FEF737
:10238000E0F9F02137482A30FEF7DBF90021354823
:102390002B30FEF7D6F948213348FEF7D2F9082151
:1023A0003148401CFEF7CDF900212F48801CFEF774
:1023B000C8F920212C48C01CFEF7C3F900212A4887
:1023C000001DFEF7BEF908212748401DFEF7B9F9A8
:1023D00000212548801DFEF7B4F900212248C01DC8
:1023E000FEF7AFF901210802FEF7ABF97D200001ED
:1023F000FDF7A8FF10BD10B501201C4908701C484E
:10240000C06A1C49096848431A49086008460068C0
:10241000000A0860084600681749884203D9084640
:102420001449086008E01348006803214902884203
:1024300002D208460F4908600E4800880004010EC9
:102440000E48FEF77EF90B4801780C48401CFEF759
:1024500078F910BD51480000014F000001590000FB
:1024600001450000183000002238000010600020F4
:10247000C09300400C600020FF7F00000135000089
:1024800010B54D484D4908604D4908604D480068F9
:102490000121890308434B4908604748474980396F
:1024A00008604948890508620846806A0121084396
:1024B00089078862FEF7D2F84448406A0121084340
:1024C0004249486200BF424840688128FBD14048E9
:1024D00000680121090408433D4908603B488069C0
:1024E00001210843394988610846C0690121084330
:1024F0003649C86134483649C8623648344980395B
:10250000086300203249C86233483449C8622E4803
:102510002F49C8620020C0432D498039C86200207D
:102520002B49C8622E482D49C8622E4808632748A7
:10253000006A02210843254908620846006A022110
:1025400008432249086201200860022023494031E3
:102550004861FEF7ADF8FEF767F9FEF7D7F92248B4
:102560000068602108432049086020480068202155
:1025700088431E4908601D48803000684021884318
:102580001A498031086011484068012108430F4909
:1025900048600806C06B400840000906C8630B4845
:1025A00080680121084309498860FDF71FFF00F09A
:1025B000A2FA002010BD0000FF0F000080E100E043
:1025C00080E200E000E400E07368687740000040CB
:1025D000009300400008AF2F80073C0400910040AA
:1025E000800738044001B40000640040806000406F
:1025F0000246FE484068812875D1012A0AD1FB486D
:10260000806902231843F94B98611846806990430A
:1026100098611AE0002A0CD1F4488069022398439B
:10262000F24B98611846806901231843EF4B98617B
:102630000BE0EE48806902231843EC4B9861184682
:10264000806901231843E94B986100290CD1E748C0
:10265000806910231843E54B986118468069202350
:102660009843E24B98611AE001290CD1DF48806958
:1026700010239843DD4B9861184680692023184346
:10268000DA4B98610BE0D948806910231843D74B87
:1026900098611846806920231843D44B9861D34829
:1026A000806904231843D14B986118468069082338
:1026B0001843CE4B98611846006807231843CB4B4C
:1026C000186007E0C948C06808231840002801D0F6
:1026D00008207047C5488068082318400028F1D0BA
:1026E0001120F6E7FFE70220F3E70146BF48406804
:1026F00081282FD1BD4841614069012212049043D5
:10270000BA4A50611046006808221043B74A106068
:102710001046C06804221040002801D007207047EE
:1027200007E0B248C068C007C00F002801D00520EC
:10273000F5E7AE488068FF22013210400028F0D053
:10274000AA48C06802221040002801D00620E6E70F
:102750001020E4E70220E2E70146A448406881280F
:1027600027D1A248416140690122120490439F4A47
:10277000506110460068192210439C4A10601046B0
:10278000C06804221040002801D00720704707E0ED
:102790009648C068C007C00F002801D00520F5E7A3
:1027A00092488068FF22013210400028F0D01020AB
:1027B000ECE70220EAE701468C484068812839D1DD
:1027C00000290CD18948C06901221043874AD06191
:1027D0001046C06902229043844AD0610BE08348CE
:1027E000C06940084000814AD0611046C069022299
:1027F00010437E4AD0617D4800680D2210437B4A19
:1028000010600FE07948C06810221040002801D005
:10281000092070477548806840221040002801D088
:102820000A20F6E771488068202210400028E9D08D
:102830001220EEE70220ECE702466C48406881284F
:1028400036D1002906D16948006940084000674B2D
:10285000186105E06548006901231843634B18615E
:1028600062484261C06804231840002801D0072054
:1028700070475E4800680E2318435C4B186007E001
:102880005A48C068C007C00F002801D00520EFE7F4
:1028900056488068802318400028F1D05348C0680B
:1028A00002231840002801D00620E1E71320DFE7CB
:1028B0000220DDE701464D48406881282DD10029DE
:1028C00006D14A48006940084000484A106105E0C6
:1028D0004648006901221043444A10614348006899
:1028E0000B221043414A106007E04048C068C0070F
:1028F000C00F002801D0052070473C488068802226
:1029000010400028F1D03948C06802221040002849
:1029100001D00620F0E71420EEE70220ECE7F0B546
:102920000446002B20D1002017E08500ED1C655DDA
:102930002D068600B61CA65D360435438600761C3F
:10294000A65D360235438600A65D35438600284FD6
:10295000F61917464F43F551401CCE17B60F76189F
:10296000B6108642E1D81FE0002017E08500ED1C7C
:10297000655D2D068600B61CA65D360435438600CF
:10298000761CA65D360235438600A65D354386007B
:10299000184FF61917464F43F551401CCE17B60F86
:1029A0007618B6108642E1D8F0BDF0B50446002B8B
:1029B00026D1002016E086000D4FF61917464F432A
:1029C000F5598600A5552E04370E8600761CA755AE
:1029D0002E02370E8600B61CA7552F0E8600F61C59
:1029E000A755401CCF17BF0F7F1805E0009300408C
:1029F0000000093000200930BF108742DBD81EE0FC
:102A0000002016E08600384FF61917464F43F55957
:102A10008600A5552E04370E8600761CA7552E027B
:102A2000370E8600B61CA7552F0E8600F61CA7553C
:102A3000401CCF17BF0F7F18BF108742E2D8F0BDF0
:102A400070B50346002018E08400E41C1C5D2406D9
:102A50008500AD1C5D5D2D042C4385006D1C5D5D06
:102A60002D022C4385005D5D2C438500032636072F
:102A7000AD1916464E43AC51401CCD17AD0F6D1825
:102A8000AD108542E0D870BD70B5034614460020F5
:102A900017E0850003263607AD1926464E43AA598E
:102AA00085005A5515042E0E85006D1C5E551502C5
:102AB0002E0E8500AD1C5E55160E8500ED1C5E5574
:102AC000401CCE17B60F7618B6108642E1D870BDFE
:102AD00010B50648FDF736FC0548006801210904D9
:102AE00008430349086010BD00200930102700008A
:102AF000009300407047FFB0FFB0B4B000BF21E1C9
:102B0000F948406884287DD1F74880691021084041
:102B100010282CD1F448806920210840002826D1B3
:102B2000F1488030406980B2F049096A89B2884230
:102B30000EDDEF48006820218843ED490860EC482D
:102B40008030006840210843E9498031086077E01F
:102B5000E748006820210843E5490860E4488030E0
:102B6000006840218843E2498031086068E0DE481F
:102B700080691021084000282CD1DB488069202181
:102B80000840202826D1D8488030406980B2D749F3
:102B9000096A090C88420EDDD54800682021884367
:102BA000D3490860D2488030006840210843D049AA
:102BB0008031086044E0CE48006820210843CC49B9
:102BC0000860CB488030006840218843C849803184
:102BD000086035E0C4488030406980B2C349496A22
:102BE00089B288420FDDC248006820218843C0496D
:102BF0000860BF488030006840210843BC498031EC
:102C000008601DE00EE0BA48006820210843B8497A
:102C10000860B7488030006840218843B44980315B
:102C200008600DE0B248006820218843B049086080
:102C3000AF488030006840218843AD49803108604A
:102C4000AC48007800287DD0AB4800790002AA4942
:102C500049790843A949088008460088A84A811A8A
:102C6000904270D017DCA74A811A90426CD00BDCDE
:102C7000FF38FF38033800281ED001284ED0FF3817
:102C8000013800287ED188E0FF297CD0FF39013946
:102C90000029F7D13EE1042976D006DC012974D061
:102CA000022973D00329EDD19EE205296FD0964801
:102CB00008180028E6D115E38F48447A01229202D1
:102CC00001460B3104A800F04DFB8B48837A224665
:102CD0000121890204A8FFF722FEE0208B49087039
:102CE0000E204870002088700B20C8708348008830
:102CF0000012087181480078487100208871C871FD
:102D000001200872084644720A21FDF7FDFA7F4946
:102D100088720B217D48FFF7EDFE0EE37648447A7A
:102D2000837A22460121890204A8FFF73EFE012290
:102D3000920204A975480B3000F014FBE02073499F
:102D4000087002E004E316E159E00E204870042008
:102D500088700B20C87069480088001208716748A5
:102D600000784871002088710420C8710120087221
:102D7000084644726249F739FDF7C6FA6449887219
:102D80005F4905E0D8E274E0C6E1F4E131E192E1A7
:102D9000F6395E48FFF7AEFECFE25748407A0002B0
:102DA0005549897A084304460122920252490B315F
:102DB00004A800F0D7FA22460121890204A8FFF7EF
:102DC0003FFEE020514908700E20487000208870B6
:102DD0000C20C870494800880012087147480078E4
:102DE000487100208871C8710872201248728C7274
:102DF0006620C8720C214548FFF77CFE9DE23E48E4
:102E0000407A00023C49897A08430446224601215F
:102E1000890204A8FFF738FE0122920204A93B4868
:102E20000B3000F09FFAE020384908700E204870FF
:102E3000042088700C20C870304800880012087187
:102E40002E4800784871002088710420C871022043
:102E50000872201248728C722949F6392B48FDF706
:102E600053FA2B49C8722649F5392848FFF742FE24
:102E700063E22148407AFFA9843148641E48807A81
:102E80000864496C0120FDF769FAFFA98431086CD8
:102E9000002804D00846406CFDF772FA04E0FFA851
:102EA0008430406CFDF77CFAE020184908700E2051
:102EB0004870002088700A20C870104800880012EE
:102EC00008710E480078487100208871C871087236
:102ED00009210E48FDF718FA0C4948720A210B48DF
:102EE000FFF708FE29E20000009300400092004036
:102EF00080600040006000201C6000201660002000
:102F000001050000020300000205FFFFEC6700203E
:102F1000EC6B0020FE48417AFFA884304164416C8C
:102F20000020FDF71BFAFFA88430406CFDF748FA3B
:102F3000F8490870E020F84908700E204870002019
:102F400088700A20C870F548008800120871F3489C
:102F500000784871EF48007888710020C8710872C5
:102F60000921ED48FDF7D0F9EB4948720A21EA48FA
:102F7000FFF7C0FDE1E1E648407A0006E449897ABE
:102F800009040843E249C97A09020843E049097B78
:102F900008430646DE48407B0006DD49897B09047C
:102FA0000843DB49C97B09020843D949097C084326
:102FB00007463760E020D84908700E20487000208E
:102FC00088700A20C870D548008800120871D3485C
:102FD0000078487100208871C87108720921CE48B4
:102FE000FDF792F9CC4948720A21CB48FFF782FDE0
:102FF000A3E1C748407A0006C549897A0904084315
:10300000C349C97A09020843C149097B08430646F6
:10301000BF48407B0002BE49897B0843054600202B
:10302000BF49086024E0BE48006880000F30B849FE
:10303000085C0006BA49096889001031B44A515C3D
:1030400009040843B649096889001131515C090235
:103050000843B349096889001231515C0843B049FB
:10306000096889007050AE480068401CAC4908608F
:10307000AB480068A842D6D3E020A74908700E20CC
:103080004870002088700A20C870A4480088001288
:103090000871A2480078487100208871C8710872D0
:1030A00009219D48FDF730F99B4948720A219A4849
:1030B000FFF720FD41E19648407A00029449897A61
:1030C000084303909248C07A00029149097B084363
:1030D000029002990398FDF708FBE0208E490870E2
:1030E0000E204870002088700A20C8708B48008825
:1030F0000012087189480078487100208871C871F1
:10310000087209218448FDF7FFF8834948720A21B3
:103110008148FFF7EFFC10E17D48407A00027C49CE
:10312000897A084303900398FDF74FFB0190E02054
:10313000794908700E204870002088700C20C870F3
:1031400076480088001208717448007848710020A1
:103150008871C87102200872002048720198887234
:103160000B216D48FDF7D0F86B49C8720C216A48F5
:10317000FFF7C0FCE1E06648407A00066449897ABE
:10318000090408436249C97A090208436049097B76
:10319000084306463768E0205F4908700E204870F3
:1031A000002088700E20C8705C48008800120871EA
:1031B0005A480078487100208871C871042008724C
:1031C000380E48723802000E88723804000EC87239
:1031D0000F730D215048FDF797F84F4948730E21A2
:1031E0004D48FFF787FCA8E04948407A0006484967
:1031F000897A090408434649C97A090208434449BF
:10320000097B084306464248407B00024049897BCF
:1032100008430546E020404908700E204870A80089
:103220000A300004000E8870A8000A30C8703B48BD
:1032300000880012087139480078487100208871B0
:10324000A804000EC871A806000E087200203449B8
:1032500008602FE03248006880003058010E304886
:103260000068800009302C4A11542D480068800005
:1032700030580002010E2A48006880000A301154BC
:1032800027480068800030580004010E2448006878
:1032900080000B3011542248006880003058C1B2C1
:1032A0001F48006880000C3011541D480068401C05
:1032B0001B4908601A480068A842CBD3681E8000EA
:1032C00001460D311448FDF71FF8691E89000D31C4
:1032D000114A5054681E800001460E311046FFF717
:1032E00009FC2AE0E0200C4908700E2048700020FC
:1032F00088700A20C87009480088001208710748C1
:103300000078487100208871C8710872092109E0AD
:103310001C60002014600020EC6700201660002074
:10332000186000200B48FCF7EFFF0A4948720A2199
:103330000848FFF7DFFB00E000BF00BF00200649A0
:103340000870064908604B210901054800F067F83C
:10335000FFF7D6FBEC67002000600020046000202F
:103360001C600020F8B5042A2CD3830712D00B78F8
:10337000491C0370401C521E83070BD00B78491C5C
:103380000370401C521E830704D00B78491C037045
:10339000401C521E8B079B0F05D0C91ADF0020234B
:1033A000DE1B08C90AE0FCF7D7FEF8BD1D4608C9B8
:1033B000FD401C46B4402C4310C0121F042AF5D215
:1033C000F308C91A521EF0D40B78491C0370401C34
:1033D000521EEAD40B78491C0370401C012AE4D425
:1033E00009780170F8BD01E004C0091F0429FBD26F
:1033F0008B0701D50280801CC90700D0027070477E
:1034000000290BD0C30702D00270401C491E0229BC
:1034100004D3830702D50280801C891EE3E70022C3
:10342000EEE70022DFE7704770477047754600F00F
:1034300023F8AE46050069465346C008C0008546DD
:1034400018B020B5FCF7B0FE60BC00274908B646AE
:103450000026C0C5C0C5C0C5C0C5C0C5C0C5C0C5A3
:10346000C0C5403D49008D4670470446C046C04631
:103470002046FCF76AFE000000487047BC6F002041
:1034800001491820ABBEFEE726000200704730B4A9
:103490007446641E2578641CAB4204D3635D5B00F4
:1034A000E31830BC18471D46F8E70000EC34002054
:1034B000006000201C000000F400002008350020FF
:1034C0001C600020001000001001002008350020C2
:1034D00000800120F00F00001001002008350020BE
:1034E000007001200010000010010020000000000A
:1034F0000000000000000000FF420000000000008B
:083500000000000000000000C3
:04000005200000B126
:00000001FF
